:100000000C9434000C943E000C943E000C943E0082
:100010000C943E000C943E000C943E000C943E0068
:100020000C943E000C943E000C943E000C943E0058
:100030000C943E000C943E000C943E000C943E0048
:100040000C943E000C943E000C943E000C943E0038
:100050000C943E000C943E000C943E000C943E0028
:100060000C943E000C943E0011241FBECFEFD8E04C
:10007000DEBFCDBF0E9440000C9456000C940000DF
:10008000249A8CB580648CBD1EBC80917C008066F7
:1000900080937C0080917A00876E80937A008091B3
:1000A00079008EBD0DB407FEFDCFF9CFF894FFCFD8
:00000001FF
